:101795002020202020202020202020202020202044
:1017A50000205965733F202020202020204E6F3FC8
:0217B500200012
:0918740041003802420039000075
:10147800D2927F587E0212183C7592FF7591FF75C3
:10148800B4FF75B3FF75CAFF75C9FF75B2C375B1EF
:10149800C3C288D2A8D28AD2AAD2AF7F147E001241
:1014A800183C43870200000000E4F592F591F5B27C
:0B14B800F5B1F5B4F5B3F5CAF5C92293
:100E4A001217B7EFFD7C007E7C7FAC120C7190000C
:100E5A002FEEF0A3EFF0E025E0FF90002FE033FE45
:100E6A00EF2430FFEE34FDFEF0A3EFF0D39463EEEF
:100E7A0064809480400990002FE4F0A37463F0C367
:100E8A0090002FE0648094805004E4F0A3F0900076
:100E9A00317420F07B0C7D02FF121146900031E084
:100EAA002410F0E0FF7B0D7D02121146900031E024
:100EBA002410F0E0FF7B3A7D021210AB900031E083
:100ECA002408F090002FE0FEA3E0FF7C007D64126E
:100EDA000CC67E007F0ACFCDCFCECCCE120CC6EF89
:100EEA002430FBA3E0FF7D021210AB900031E02416
:100EFA0008F090002FE0FEA3E0FF7C007D0A120CB0
:100F0A00C6ED2430FBA3E0FF7D021210AB90003146
:0D0F1A00E02408F0E0FF7B257D021210AB03
:010F270022A7
:10085600E490002DF0A3F09000397407F0A374D053
:10086600F0E4900000F0C2927F0AFE12183C1218C3
:1008760058900000E0701590002DE0C394C8500C0D
:10088600E004F07F017E0012183C80E57FF47E01D3
:1008960012183C121586900022EEF0A3EFF0120F0C
:1008A60028120E4A90003974FFF5F0120CFCFED3A4
:1008B600E5F09400EE94005003020B3B1219471228
:1008C60013D390003BEFF0600A9000397413F0A345
:1008D6007488F090002EE06003020A1890003BE056
:1008E600640160030209BD7BFF7A177995FDFF124B
:1008F600137F7BFF7A1779957D02E4FF12137FE45D
:10090600FBFD7F201211467B01E4FD7F301211466C
:100916007B0AE4FD7F401211467B0BE4FD7F5012FB
:1009260011467B0E7D027F201211467B0F7D027FD2
:10093600301211467B107D027F401211467B117DDD
:10094600027F50121146E490002DF07F647E001263
:10095600183C12125EEF70207BFF7A1779957D02A4
:10096600FF12137F7B02E4FD7F401211467B03E4F6
:10097600FD7F50121146800C90002DE004F0E0C37C
:10098600940A40C790002DE0B40A1F7BFF7A1779BE
:10099600957D02E4FF12137F7B04E4FD7F40121174
:1009A600467B05E4FD7F501211467FE87E03121850
:1009B6003C90002E7402F090003BE0640270487B8D
:1009C60006FD7F101211467B07E4FD7F20121146BB
:1009D6007B08E4FD7F301211467B09E4FD7F40125F
:1009E60011467B0AE4FD7F501211467B0BE4FD7F26
:1009F600601211467BFF7A1779A67D02E4FF121377
:100A06007F90002E7401F090003BE06403700302B7
:100A16000B3B90002EE06401707B90003BE064018C
:100A260070667BFF7A177995FDFF12137F7BFF7A3D
:100A36001779957D02E4FF12137F1218C190002DDD
:100A46007403F090002DE0FFC3940D502EEF75F067
:100A560008A424F8FF7B3D7D021210AB90002DE028
:100A660075F008A4FF7B3E7D021210AB7FC87E00A6
:100A760012183C90002DE004F080C890002E7402FD
:100A8600F0E4900022F0A3F090003BE0B40306905F
:100A9600002E7402F090002EE0640260030208AAA1
:100AA600F07BFF7A177995FDFF12137F7BFF7A178C
:100AB60079957D02E4FF12137F7B0AE4FD7F201205
:100AC60011467B0BE4FD7F301211467B3AE4FD7F35
:100AD600401210AB900022E0FEA3E0FF7C007D6494
:100AE600120C71EF2430FBE4FD7F481210AB90002E
:100AF60022E0FEA3E0FF7C007D64120C717E007F85
:100B06000ACFCDCFCECCCE120C71EF2430FBE4FD54
:100B16007F501210AB900022E0FEA3E0FF7C007D28
:100B26000A120C71ED2430FBE4FD7F581210AB1253
:050B36000E4A0208AAAE
:010B3B002297
:10142600E490002DF0A37403F0C292E4900000F063
:101436007F05FE12183C121858900000E0701590B7
:10144600002DE0C394C8500CE004F07F017E00122A
:10145600183C80E590002EE0FF14F0EF60131213A5
:1014660026EF70F0120F28120E4A7F507E001212DD
:01147600C5B0
:011477002252
:1016DB00E4F592F591F5B2F5B1F5B4F5B3F5CAF5BC
:1016EB00C9121478900038E0B40103120856900028
:0A16FB0038E070ED12142680E8229A
:030013000218EDE3
:1018ED00C0E0C083C0829000387401F0D082D083F4
:0318FD00D0E03206
:03000300021913CC
:10191300C0E0C083C082900038E4F0D082D083D08E
:02192300E032B0
:10183C00900036EEF0A3EFF090003674FFF5F01246
:0C184C000CFC45F0600512194780ED22ED
:0B1947000000007F0B7EBEDEFEDFFC18
:011952002272
:10185800E5A2543F4440F5A275985075D7E875D66F
:0C186800FF758E14438E01D2ACD2AF226B
:030023000216754D
:10167500C0E0C083C082C0D075D000C007309816C6
:10168500C298900000E0FF04F074012FF582E43465
:1016950000F583E599F0309904C299C200D007D0CE
:0816A500D0D082D083D0E032E6
:081973002000FDD2008F992233
:10163B000100031D0021EF01FFFFFFFF010003016C
:10164B0000050100080401000003E700F801000495
:10165B000201000801000402020009010003050059
:0A166B00090100030D00110000004A
:10187D0042002200004900240100060601000B0071
:01188D001941
:04198700121973229C
:10160100E4900035F0A3F0900035E0FEA3E0FFC3C5
:101611009406EE64809480502074412FF5827416F4
:101621003EF583E493FF121987900036E004F070D1
:0916310006900035E004F080CEC3
:01163A00228D
:1015C5009000347403F0A374E8F090000A7401F0FD
:1015D500E4900000F090003474FFF5F0120CFC4527
:1015E500F06013121947900000E0C3940A40E67FAB
:0B15F5000A7E0012183CE4900000F099
:0116000022C7
:10170500121601E4900034F0900034E0FFC3940613
:101715005011EF90164793FF121987900034E0049B
:03172500F080E56C
:01172800229E
:10172900121601E4900034F0900034E0FFC39407EE
:101739005011EF90165893FF121987900034E00466
:03174900F080E548
:01174C00227A
:1014C300E490002FF090002FE0FFC394065011EF3B
:1014D30090164193FF12198790002FE004F080E5E6
:1014E300E490002FF090002FE0FFC394075011EF1A
:1014F30090165F93FF12198790002FE004F080E5A8
:0115030022C5
:10174D00121601E4900034F0900034E0FFC3940BC6
:10175D005011EF90164D93FF121987900034E0044D
:03176D00F080E524
:011770002256
:10177100121601E490002FF090002FE0FFC39406B1
:101781005011EF90166693FF12198790002FE00415
:03179100F080E500
:011794002232
:10150400E4900030F0900030E0FFC394065011EFF7
:1015140090164193FF121987900030E004F080E5A3
:10152400E4900030F0900030E0FFC394065011EFD7
:1015340090166C93FF121987900030E004F080E558
:011544002284
:040FFA00AB07AA0691
:100FFE0090002F120D3100000000EA900029F0EB56
:10100E00A3F0E4900033F090002FE0F8A3E0F9A3F2
:10101E00E0FAA3E0FBA3E02424F582E43400F58398
:10102E00E0FFE4FCFDFEEB2FFFEE3AFEED39FDECAA
:10103E0038FC90002F120D25900033E004F0E0B440
:10104E0007C590002FE0FCA3E0FDA3E0FEA3E0E4C3
:10105E00FFEEE4FDFC7808120D1290002BEFF090DD
:10106E00002FE0FCA3E0FDA3E0FEA3E0FFE4900070
:10107E002CEFF0121601E4900033F0900033E0FFF5
:10108E00C39409501774242FF582E43400F583E0DD
:0C109E00FF121987900033E004F080DF9F
:0110AA002223
:10125E001217051215C590000AE070557FC8FE12D0
:10126E00183C1217291215C590000AE0704012178B
:10127E00051215C590000AE070317FC8FE12183CA9
:10128E001214C31215C51217711215C5900022E063
:10129E00FEA3E0FF120FFA1215C5900023E004F032
:1012AE007006900022E004F07F00227F01227F0270
:0712BE002290000AE0FF226C
:10132600E490002FF0A3F078317C007D017BFF7AFA
:10133600167972FE7F03120C0C1217051215C59052
:10134600000AE070317F64FE12183C12172912154C
:10135600C512174D1215C590000AE07016A3E0FEDF
:10136600A3E07C002400FFEC3E90002FF0A3EFF0FA
:081376007F00227F01227F02AB
:01137E00224C
:1018C100E490002FF01215041215C590000AE07083
:0518D10002FF227F016F
:0118D60022EF
:0C0D6200900011EEF0A3EFF0AB05AA0426
:100D6E00E4A3F0A3120D31000000009000187401EE
:100D7E00F0E4A3F0A37407F0A3740CF0900011E05C
:100D8E00FCA3E0FDEC90001CF0EDA3F0E4A3F0EB6F
:100D9E00A3F0E4900013F0900014E0F8A3E0F9A3A0
:100DAE00E0FAA3E0FB900013E02418F582E434008F
:100DBE00F583E0FFE4FCFDFEEB2FFFEE3AFEED398E
:100DCE00FDEC38FC900014120D25900013E004F099
:100DDE00E0B408C3900014E0FCA3E0FDA3E0FEA382
:100DEE00E0E4FFEEE4FDFC7808120D12900020EF17
:100DFE00F0900014E0FCA3E0FDA3E0FEA3E0FFE40E
:100E0E00900021EFF0121601E4900013F090001301
:100E1E00E0FFC3940A501774182FF582E43400F5DE
:100E2E0083E0FF121987900013E004F080DF1215A3
:0B0E3E00C590000AE07002FF227F0157
:010E49002286
:10158600121601E490002FF090002FE0FFC394069E
:101596005011EF90163B93FF12198790002FE0042D
:1015A600F080E51215C590000AE0700EA3E0FEA3D8
:0E15B600E07C002400FFEC3EFE227EFF7FFF63
:0115C4002204
:1013D300E490003DF030950630CD0320B33090000B
:1013E3003CE064017028F07F0AFE12183C20950847
:1013F30090003D7401F0802520CD0890003D7402DB
:10140300F0801A20B31790003D7403F0800F3095DD
:101413000C30CD0930B30690003C7401F090003DD0
:02142300E0FFE8
:0114250022A4
:1000260000000000000000000000000000000000CA
:10003600000000F80000000000000033300000005F
:1000460000100C06100C0600000000000000000066
:1000560040C07840C0784000043F04043F040400D8
:10006600007088FC08300000001820FF211E0000E8
:10007600F008F000E018000000211C031E211E00FD
:1000860000F00888700000001E2123241927211083
:1000960010160E0000000000000000000000000026
:1000A600000000E0180402000000000718204000CD
:1000B60000020418E00000000040201807000000BD
:1000C600404080F0804040000202010F0102020021
:1000D600000000F0000000000101011F0101010005
:1000E600000000000000000080B07000000000006A
:1000F60000000000000000000001010101010101F3
:100106000000000000000000003030000000000089
:10011600000000008060180400601806010000005E
:1001260000E010080810E000000F102020100F005B
:10013600001010F8000000000020203F20200000E2
:10014600007008080888700000302824222130003A
:1001560000300888884830000018202020110E0042
:100166000000C02010F8000000070424243F2400EB
:1001760000F80888880808000019212020110E00C0
:1001860000E0108888180000000F112020110E00D2
:1001960000380808C83808000000003F00000000CA
:1001A6000070880808887000001C222121221C008B
:1001B60000E010080810E0000000312222110F00B4
:1001C600000000C0C0000000000000303000000049
:1001D60000000080000000000000806000000000B9
:1001E60000008040201008000001020408102000D2
:1001F600404040404040400004040404040404001D
:1002060000081020408000000020100804020100B1
:10021600007048080808F0000000003036010000B1
:10022600C030C828E810E0000718272423140B0064
:100236000000C038E0000000203C230202273820DE
:1002460008F8888888700000203F202020110E00C2
:10025600C0300808080838000718202020100800B9
:1002660008F808080810E000203F202020100F00A2
:1002760008F88888E8081000203F2020232018006E
:1002860008F88888E8081000203F200003000000D6
:10029600C03008080838000007182020221E020077
:1002A60008F808000008F808203F210101213F2036
:1002B600000808F8080800000020203F2020000061
:1002C60000000808F8080800C08080807F00000051
:1002D60008F888C028180800203F2001263820008A
:1002E60008F8080000000000203F202020203000F1
:1002F60008F8F800F8F80800203F003F003F20000B
:1003060008F830C00008F808203F200007183F0012
:10031600E01008080810E0000F10202020100F0041
:1003260008F808080808F000203F21010101000034
:10033600E01008080810E0000F18242438504F0079
:1003460008F8888888887000203F2000030C302039
:1003560000708808080838000038202121221C0077
:10036600180808F8080818000000203F20000000C0
:1003760008F808000008F808001F202020201F00A9
:100386000878880000C83808000007380E01000009
:10039600F80800F80008F800033C0700073C0300D3
:1003A600081868808068180820302C03032C302039
:1003B6000838C800C83808000000203F20000000A8
:1003C60010080808C8380800203826212020180000
:1003D600000000FE020202000000007F40404000D4
:1003E600000C30C000000000000000010638C0000C
:1003F60000020202FE000000004040407F000000B4
:1004060000000402020204000000000000000000D8
:1004160000000000000000008080808080808080D6
:1004260000020204000000000000000000000000BE
:1004360000008080808000000019242222223F20B4
:1004460008F8008080000000003F112020110E00F7
:100456000000008080800000000E11202020110086
:10046600000000808088F800000E112020103F2038
:100476000000808080800000001F222222221300BC
:10048600008080F0888888180020203F2020000007
:100496000000808080808000006B949494936000BC
:1004A60008F8008080800000203F210000203F20C7
:1004B60000809898000000000020203F20200000C7
:1004C600000000809898000000C08080807F0000B7
:1004D60008F8000080808000203F24022D30200094
:1004E600000808F8000000000020203F202000003F
:1004F6008080808080808000203F20003F20003F59
:100506008080008080800000203F210000203F2066
:100516000000808080800000001F202020201F0017
:10052600808000808000000080FFA12020110E0046
:100536000000008080808000000E112020A0FF8037
:10054600808080008080800020203F2120000100E4
:100556000000808080808000003324242424190039
:10056600008080E0808000000000001F2020000046
:100576008080000000808000001F202020103F2087
:10058600808080000080808000010E300806010017
:1005960080800080008080800F300C030C300F00BC
:1005A60000808000808080000020312E0E312000E7
:1005B600808080000080808080818E701806010017
:1005C60000808080808080000021302C2221300035
:1005D60000000000807C020200000000003F404056
:1005E60000000000FF00000000000000FF00000007
:1005F6000002027C800000000040403F0000000036
:1006060000060101020204040000000000000000D0
:100616001060028C00109252321E3252921210005A
:1006260004047E0100211840807F0830040931004F
:10063600101010FF1010F00000F8080808F800006D
:100646008040300F40807F00007F2020207F000008
:100656000000F8888888880808FF08090AC8080082
:1006660080601F0010201F80402116182641F800C8
:10067600080808F80808081010FF101010F000000D
:100686001030101F088848300E014080403F00009F
:100696000040301E101010FF101010101000000047
:1006A60081814121110D0301030D11214181810039
:1006B60000FE02FA02FE4020D8171010F0101000BB
:1006C6008047300F106780402116081621408000B1
:1006D60080FE8282FE80FE8282FE8000F800FF009D
:1006E600403F0020BF403F40807F00004F807F009A
:1006F60000FE225A8620102824E3242810202000F9
:1007060000FF040827110D41817F01050931000012
:100716000000FC242422E302FC444442C34240007D
:1007260040300F02028243300F000000FF0000003D
:1007360004040484E43C2724242424E4040404005C
:1007460004020100FF0909090949897F0000000028
:100756000000FE22222222FE22222222FE00000089
:1007660080601F020202027F020242827F000000B6
:10077600000000F80808090E08080808F80000003C
:100786000080601F01010101010101010300000059
:100796000000F888888888FF88888888F800000024
:1007A60000001F080808087F888888889F80F00056
:1007B600202020BEAAAAAAAAAAAAAABE2020200051
:1007C600008080AFAAAAAAFFAAAAAAAF80800000CA
:1007D6004042CC0000445454547F54545444400086
:1007E60000007F201000FF15151555957F000000AD
:1007F6000808F94A48C84820D8171010F010100009
:1008060040300F20403F80402116081621408000CE
:1008160000002424242424FC222222232200000077
:10082600020202020242827F020202020202020067
:10083600101010FF1090003F484844444442700096
:100846000444827F010000FF4949494949FF0000ED
:09196A00D291D290C290C29122E8
:07197B00D291C290D290222C
:05198200D291C2912288
:1017D900C291E4FEAD07ED5480FDB48004D290803F
:1017E90002C290EF25E0FFD291C2910EEEB408E457
:0117F90022CD
:1017FA00AC0712196A7F781217D9121982E4FF12FC
:10180A0017D9121982AF041217D912198212197B29
:01181A0022AB
:10181B00AC0712196A7F781217D91219827F4012FE
:10182B0017D9121982AF041217D912198212197B08
:01183B00228A
:10192500AB07AA06ED4C600412181B22AF03121771
:02193500FA2294
:1016AD00A907ED24B0FFE433FEE4FDFC121925E992
:1016BD0054F0FFC4540F7E004410FFE4FDFC1219DA
:0E16CD0025E9540FFF7E00E4FDFC12192522D2
:10154500E4F9E924B0FFE433FEE4FDFC121925E4D7
:10155500FDFCFFFE121925E4FDFC7F10FE12192586
:10156500E490002FF07D017C00E4FFFE1219259028
:10157500002FE004F0E0C3948040EA09E9B404C216
:011585002243
:0B10AB00900036EDF0900035EFF0FDF6
:1010B600E4900037F0F9EB24E0F0EDD3947F400A9A
:1010C600E4900035F0A3E02402F0900035E0FFA3A1
:1010D600E0FD1216ADE4F9900037E075F010A42992
:1010E600F582E435F0F583E5822426F582E583343E
:1010F60000F583E493FF7E007D017C00121925092B
:10110600E9B408D3900035E0FFA3E004FD1216AD64
:10111600E4F9900037E075F010A429F582E435F083
:10112600F583E582242EF582E5833400F583E49386
:0F113600FF7E007D017C0012192509E9B408D362
:011145002287
:10137F0090002FEFF0A3EDF0A3EBF0A3EAF0A3E9B9
:01138F00F06D
:10139000E4A3F0900031E0FBA3E0FAA3E0F9A3E0BE
:1013A000F582758300120C32FB602790002FE0FF5E
:1013B000A3E0FD1210AB90002FE02408F0E0D394DE
:1013C000784007E4F0A3E02402F0900034E004F059
:0213D00080C1DA
:0113D20022F8
:0D114600900034EBF0900032EFF0A3EDF0DC
:10115300E4900035F01216ADE4F9900034E075F038
:1011630020A42416F582E5F03406F583E58229F5FB
:1011730082E43583F583E493FF7E007D017C0012D6
:101183001925900035E004F009E9B410CD90003240
:10119300E0FFA3E004FD1216ADE4F9900034E0751E
:1011A300F020A42426F582E5F03406F583E58229B0
:1011B300F582E43583F583E493FF7E007D017C00B3
:0E11C300121925900035E004F009E9B410CDB2
:0111D10022FB
:100F2800E4FDFC7FAEFE121925E4FDFC7F40FE12B5
:100F38001925E4FDFC7FB0FE121925E4FDFC7FC8ED
:100F4800FE121925E4FDFC7F81FE121925E4FDFC43
:100F58007F64FE121925E4FDFC7FA1FE121925E429
:100F6800FDFC7FA6FE121925E4FDFC7FA8FE1219E0
:100F780025E4FDFC7F1FFE121925E4FDFC7FD3FE4E
:100F8800121925E4FDFCFFFE121925E4FDFC7FD5AE
:100F9800FE121925E4FDFC7FF0FE121925E4FDFC84
:100FA8007FD9FE121925E4FDFC7F22FE121925E4E3
:100FB800FDFC7FDAFE121925E4FDFC7F02FE121902
:100FC80025E4FDFC7FDBFE121925E4FDFC7F49FECC
:100FD800121925E4FDFC7F8DFE121925E4FDFC7F26
:100FE80014FE121925E4FDFC7FAFFE121925121517
:020FF800452290
:10190000AD071FED600C7E88AD061EED60F280F81D
:0219100080EE67
:0119120022B2
:1017B700E4F59DF5BD75BC807F0212190075BC88E4
:1017C70000000000E5BC30E4FB53BCEF53BC7FAF27
:0217D700BD2231
:0C0006007F017EC07D79DDFEDEFCDFFAAC
:0100120022CB
:0A195F0000007F187EA7DEFEDFFC0B
:01196900225B
:0B1953000000007F097E97DEFEDFFC35
:01195E002266
:0F1937000000007F017ECF7D88DDFEDEFCDFFA41
:01194600227E
:0812C50090002FEEF0A3EFF002
:1012CD00C294E4FBFAD3900030E09B90002FE09A9B
:1012DD004011C293121937D2931219530BBB00014F
:1012ED000A80E290002FE0FEA3E0FF7C007D141247
:1012FD000C5F12183CE4FAFBD3900030E09B900099
:10130D002FE09A4011C293120006D29312195F0B6F
:08131D00BB00010A80E2D2943A
:0113250022A5
:0D001600E4F5C7F5C5F5C675C380F5C42235
:1018A90075C78375C5018FC4EEF5C375C65A75C66C
:0718B900A500AFC2120016EA
:0118C0002205
:10188F0075C78375C5028FC4EEF5C3AF058FC275DB
:0A189F00C65A75C6A50012001622F5
:1018D70075C78375C5038FC4EEF5C375C65A75C63C
:0618E700A500120016220C
:030000000211D218
:0C11D200787FE4F6D8FD75812002121928
:100B3C00E709F608DFFA8046E709F208DFFA803E9B
:100B4C0088828C83E709F0A3DFFA8032E309F60888
:100B5C00DFFA8078E309F208DFFA807088828C83F0
:100B6C00E309F0A3DFFA806489828A83E0A3F608A4
:100B7C00DFFA805889828A83E0A3F208DFFA804C7E
:100B8C0080D280FA80C680D4806980F28033801055
:100B9C0080A680EA809A80A880DA80E280CA8033BE
:100BAC0089828A83ECFAE493A3C8C582C8CCC58336
:100BBC00CCF0A3C8C582C8CCC583CCDFE9DEE78006
:100BCC000D89828A83E493A3F608DFF9ECFAA9F085
:100BDC00EDFB2289828A83ECFAE0A3C8C582C8CCDB
:100BEC00C583CCF0A3C8C582C8CCC583CCDFEADEF4
:100BFC00E880DB89828A83E493A3F208DFF980CC56
:100C0C0088F0EF60010E4E60C388F0ED2402B4044E
:100C1C000050B9F582EB2402B4040050AF232345F5
:060C2C008223900B8C7383
:100C3200BB010CE58229F582E5833AF583E0225077
:100C420006E92582F8E622BBFE06E92582F8E222C1
:0D0C5200E58229F582E5833AF583E49322DB
:100C5F00EF8DF0A4A8F0CF8CF0A428CE8DF0A42EA9
:020C6F00FE2263
:100C7100BC000BBE0029EF8DF084FFADF022E4CC67
:100C8100F875F008EF2FFFEE33FEEC33FCEE9DEC30
:100C9100984005FCEE9DFE0FD5F0E9E4CEFD22ED76
:100CA100F8F5F0EE8420D21CFEADF075F008EF2FC0
:100CB100FFED33FD4007985006D5F0F222C398FDB1
:050CC1000FD5F0EA224E
:100CC600C2D5EC30E709B2D5E4C39DFDE49CFCEE49
:100CD60030E715B2D5E4C39FFFE49EFE120C71C344
:100CE600E49DFDE49CFC8003120C7130D507C3E43F
:060CF6009FFFE49EFE22B8
:100CFC00A3F8E0C5F025F0F0E582158270021583AB
:060D0C00E0C838F0E82207
:100D1200E8600FECC313FCED13FDEE13FEEF13FFBF
:030D2200D8F122E3
:0C0D2500ECF0A3EDF0A3EEF0A3EFF02241
:100D3100A8828583F0D083D082120D48120D48120B
:100D41000D48120D48E473E493A3C583C5F0C58330
:100D5100C8C582C8F0A3C583C5F0C583C8C582C80C
:010D6100226F
:1011DE000216DBE493A3F8E493A34003F68001F236
:1011EE0008DFF48029E493A3F85407240CC8C33312
:1011FE00C4540F4420C8834004F456800146F6DFE1
:10120E00E4800B0102040810204080901874E47EE4
:10121E00019360BCA3FF543F30E509541FFEE493D5
:10122E00A360010ECF54C025E060A840B8E493A39C
:10123E00FAE493A3F8E493A3C8C582C8CAC583CAC7
:10124E00F0A3C8C582C8CAC583CADFE9DEE780BE7F
:01188E000059
:00000001FF
