:1018BD00202020202020202020202020202020201B
:1018CD0000205965733F202020202020204E6F3F9F
:0218DD002000E9
:0E19420042002D000041002702420028000054
:10152500D2927F587E021219627592FF7591FF75EE
:10153500B4FF75B3FF75CAFF75C9FF75B2C375B141
:10154500C3C288D2A8D28AD2AAD2AF7F147E001293
:10155500196243870200000000E4F592F591F5B2A7
:0B156500F5B1F5B4F5B3F5CAF5C922E5
:1013C00012189A90002AE4F0A3EFF07F017E001239
:1013D000196212189A90002AE4F0A3EFF07F017EC0
:1013E0000012196212189A90002BE02FF090002A38
:1013F000E03400F0E0C313FEA3E013FF90002AEEF8
:10140000F0A3EFF0FBAA06E4F9F8FF7E4D7D01FCA6
:0C14100012157090002DEEF0A3EFF022FA
:100DF100E490001EF01213C090001E7418F07B0CDA
:100E01007D02FF1210EC90001EE02410F0E0FF7B49
:100E11000D7D021210EC90001EE02410F0E0FF7B2B
:100E21003A7D0212105190001EE02408F090002D2E
:100E3100E0FEA3E0FF7C037DE8120C687E007F6486
:100E4100CFCDCFCECCCE120C68EF2430FB90001E5C
:100E5100E0FF7D0212105190001EE02408F0E0FF37
:100E61007B2E7D0212105190001EE02408F09000AC
:100E71002DE0FEA3E0FF7C007D64120C687E007F04
:100E81000ACFCDCFCECCCE120C68EF2430FB900030
:100E91001EE0FF7D0212105190001EE02408F09028
:100EA100002DE0FEA3E0FF7C007D0A120C68ED241A
:100EB10030FB90001EE0FF7D0212105190001EE0F9
:0C0EC1002408F0E0FF7B567D0212105167
:010ECD002202
:10085600E490001CF0A3F09000287407F0A374D075
:10086600F0E4900000F0C2927F0AFE12196212199B
:100876007E900000E0701590001CE0C394C8500CF8
:10088600E004F07F017E0012196280E57F907E0110
:10089600121962120ECE120DF17D647C007F0112D8
:1008A60016B6121677900011EEF0A3EFF09000281E
:1008B60074FFF5F0120CBDFED3E5F09400EE940043
:1008C6005003020B4412001612141C90002CEFF079
:1008D600600A9000287413F0A37488F090001DE05D
:1008E6006003020A2190002CE0640160030209C63D
:1008F6007BFF7A1879BDFDFF1214D17BFF7A187938
:10090600BD7D02E4FF1214D1E4FBFD7F201210EC42
:100916007B01E4FD7F301210EC7B0AE4FD7F401280
:1009260010EC7B0BE4FD7F501210EC7B0E7D027FFA
:10093600201210EC7B0F7D027F301210EC7B107DB5
:10094600027F401210EC7B117D027F501210ECE406
:1009560090001CF07F647E001219621212FAEF708A
:10096600207BFF7A1879BD7D02FF1214D17B02E449
:10097600FD7F401210EC7B03E4FD7F501210EC80EB
:100986000C90001CE004F0E0C3940A40C790001CE1
:10099600E0B40A1F7BFF7A1879BD7D02E4FF1214CA
:1009A600D17B04E4FD7F401210EC7B05E4FD7F5013
:1009B6001210EC7FE87E0312196290001D7402F09B
:1009C60090002CE0640270487B06FD7F101210EC4C
:1009D6007B07E4FD7F201210EC7B08E4FD7F3012DC
:1009E60010EC7B09E4FD7F401210EC7B0AE4FD7FEE
:1009F600501210EC7B0BE4FD7F601210EC7BFF7A4B
:100A06001879CE7D02E4FF1214D190001D7401F016
:100A160090002CE064037003020B4490001DE06418
:100A260001707B90002CE0640170667BFF7A187978
:100A3600BDFDFF1214D17BFF7A1879BD7D02E4FF5C
:100A46001214D112199A90001C7403F090001CE045
:100A5600FFC3940D502EEF75F008A424F8FF7B3DDC
:100A66007D0212105190001CE075F008A4FF7B3E39
:100A76007D021210517FC87E0012196290001CE0A0
:100A860004F080C890001D7402F0E4900011F0A3F9
:100A9600F090002CE0B4030690001D7402F0900064
:100AA6001DE0640260030208B3F07BFF7A1879BD8B
:100AB600FDFF1214D17BFF7A1879BD7D02E4FF1287
:100AC60014D17B0AE4FD7F201210EC7B0BE4FD7F42
:100AD600301210EC7B3AE4FD7F4012105190001169
:100AE600E0FEA3E0FF7C007D64120C68EF2430FB7F
:100AF600E4FD7F48121051900011E0FEA3E0FF7C58
:100B0600007D64120C687E007F0ACFCDCFCECCCE9E
:100B1600120C68EF2430FBE4FD7F50121051900058
:100B260011E0FEA3E0FF7C007D0A120C68ED243084
:0E0B3600FBE4FD7F58121051120DF10208B3BE
:010B4400228E
:10136100E490001CF0A37403F0C292E4900000F03A
:101371001213C07F057E0012196212197E900000BF
:10138100E0701590001CE0C394C8500CE004F07F9D
:10139100017E0012196280E5120ECE7D647C007F11
:1013A100011216B690001DE0FF14F0EF6010121448
:0E13B10078EF70F0120DF17F407E061212856B
:0113BF00220B
:10120400E4F592F591F5B2F5B1F5B4F5B3F5CAF597
:10121400C9121525900027E0B40103120856900066
:1012240027E07003121361C390002EE094729000C3
:101234002DE0940150DB7D647C007F021216B67DA4
:10124400F47C017F011216B67D647C007F021216C5
:10125400B67DF47C017F011216B67D647C007F02AA
:101264001216B67DF47C017F011216B67D647C00F3
:101274007F021216B67DF47C017F011216B68091AE
:011284002247
:030013000219B01F
:1019B000C0E0C083C0829000277401F0D082D08341
:0319C000D0E03242
:030003000219D609
:1019D600C0E0C083C082900027E4F0D082D083D0DC
:0219E600E032ED
:10196200900025EEF0A3EFF090002574FFF5F01241
:0C1972000CBD45F0600512001680ED224F
:0B0016000000007F0B7EBEDEFEDFFC62
:0100210022BC
:10197E00E5A2543F4440F5A275985075D7E875D648
:0C198E00FF758E14438E01D2ACD2AF2244
:030023000217A41D
:1017A400C0E0C083C082C0D075D000C00730981696
:1017B400C298900000E0FF04F074012FF582E43435
:1017C40000F583E599F0309904C299C200D007D09E
:0817D400D0D082D083D0E032B6
:081A2A002000FDD2008F99227B
:10176A000100031D0021EF01FFFFFFFF010003013C
:10177A0000050100080401000003E700F801000465
:10178A000201000801000402020009010003050029
:0A179A00090100030D00110000001A
:1019500042001100004900130100060601000B00BF
:01196000196D
:041A3E00121A2A222C
:10173000E4900024F0A3F0900024E0FEA3E0FFC3B7
:101740009406EE64809480502074702FF582741794
:101750003EF583E493FF121A3E900025E004F070FA
:0917600006900024E004F080CEA4
:01176900225D
:1016F4009000237403F0A374E8F090000A7401F0DE
:10170400E4900000F090002374FFF5F0120CBD4546
:10171400F06013120016900000E0C3940A40E67FC4
:0B1724000A7E00121962E4900000F041
:01172F002297
:10180A00121730E4900023F0900023E0FFC39406FF
:10181A005011EF90177693FF121A3E900023E004BE
:03182A00F080E566
:01182D002298
:10182E00121730E4900023F0900023E0FFC39407DA
:10183E005011EF90178793FF121A3E900023E00489
:03184E00F080E542
:011851002274
:1015B400E490001EF090001EE0FFC394065011EF6B
:1015C40090177093FF121A3E90001EE004F080E51D
:1015D400E490001EF090001EE0FFC394075011EF4A
:1015E40090178E93FF121A3E90001EE004F080E5DF
:0115F40022D4
:10185200121730E4900023F0900023E0FFC3940BB2
:101862005011EF90177C93FF121A3E900023E00470
:03187200F080E51E
:011875002250
:10187600121730E490001EF090001EE0FFC394069D
:101886005011EF90179593FF121A3E90001EE00438
:03189600F080E5FA
:01189900222C
:1015F500E490001FF090001FE0FFC394065011EF28
:1016050090177093FF121A3E90001FE004F080E5DA
:10161500E490001FF090001FE0FFC394065011EF07
:1016250090179B93FF121A3E90001FE004F080E58F
:011635002292
:040FA000AB07AA06EB
:100FA40090001E120CF200000000EA900018F0EB12
:100FB400A3F0E4900022F090001EE0F8A3E0F9A36F
:100FC400E0FAA3E0FBA3E02413F582E43400F58304
:100FD400E0FFE4FCFDFEEB2FFFEE3AFEED39FDEC05
:100FE40038FC90001E120CE6900022E004F0E0B4FD
:100FF40007C590001EE0FCA3E0FDA3E0FEA3E0E42F
:10100400FFEEE4FDFC7808120CD390001AEFF09088
:10101400001EE0FCA3E0FDA3E0FEA3E0FFE49000DB
:101024001BEFF0121730E4900022F0900022E0FF52
:10103400C39409501774132FF582E43400F583E048
:0C104400FF121A3E900022E004F080DF52
:01105000227D
:1012FA0012180A1216F490000AE070557FC8FE12FE
:10130A00196212182E1216F490000AE07040121890
:10131A000A1216F490000AE070317FC8FE121962B0
:10132A001215B41216F41218761216F4900011E07F
:10133A00FEA3E0FF120FA01216F4900012E004F0D0
:10134A007006900011E004F07F00227F01227F02E4
:07135A002290000AE0FF22CF
:10147800E490001EF0A3F078207C007D017BFF7AC9
:101488001779A1FE7F03120C1512180A1216F49090
:10149800000AE070317F64FE12196212182E1216CB
:1014A800F41218521216F490000AE07016A3E0FE27
:1014B800A3E07C002400FFEC3E90001EF0A3EFF0B8
:0814C8007F00227F01227F0258
:0114D00022F9
:10199A00E490001EF01215F51216F490000AE07099
:0519AA0002FF227F0195
:0119AF002215
:10167700121730E490001EF090001EE0FFC394069E
:101687005011EF90176A93FF121A3E90001EE00464
:10169700F080E51216F490000AE0700EA3E0FEA3B6
:0E16A700E07C002400FFEC3EFE227EFF7FFF71
:0116B5002212
:10141C00E4900030F030950630CD0320B3399000C5
:10142C002FE064017031F07F0AFE121962209508DA
:10143C009000307401F0801420CD089000307402BC
:10144C00F0800920B3069000307403F07D647C00BA
:10145C007F011216B6800F30950C30CD0930B306D3
:0B146C0090002F7401F0900030E0FFB2
:011477002252
:1000260000000000000000000000000000000000CA
:10003600000000F80000000000000033300000005F
:1000460000100C06100C0600000000000000000066
:1000560040C07840C0784000043F04043F040400D8
:10006600007088FC08300000001820FF211E0000E8
:10007600F008F000E018000000211C031E211E00FD
:1000860000F00888700000001E2123241927211083
:1000960010160E0000000000000000000000000026
:1000A600000000E0180402000000000718204000CD
:1000B60000020418E00000000040201807000000BD
:1000C600404080F0804040000202010F0102020021
:1000D600000000F0000000000101011F0101010005
:1000E600000000000000000080B07000000000006A
:1000F60000000000000000000001010101010101F3
:100106000000000000000000003030000000000089
:10011600000000008060180400601806010000005E
:1001260000E010080810E000000F102020100F005B
:10013600001010F8000000000020203F20200000E2
:10014600007008080888700000302824222130003A
:1001560000300888884830000018202020110E0042
:100166000000C02010F8000000070424243F2400EB
:1001760000F80888880808000019212020110E00C0
:1001860000E0108888180000000F112020110E00D2
:1001960000380808C83808000000003F00000000CA
:1001A6000070880808887000001C222121221C008B
:1001B60000E010080810E0000000312222110F00B4
:1001C600000000C0C0000000000000303000000049
:1001D60000000080000000000000806000000000B9
:1001E60000008040201008000001020408102000D2
:1001F600404040404040400004040404040404001D
:1002060000081020408000000020100804020100B1
:10021600007048080808F0000000003036010000B1
:10022600C030C828E810E0000718272423140B0064
:100236000000C038E0000000203C230202273820DE
:1002460008F8888888700000203F202020110E00C2
:10025600C0300808080838000718202020100800B9
:1002660008F808080810E000203F202020100F00A2
:1002760008F88888E8081000203F2020232018006E
:1002860008F88888E8081000203F200003000000D6
:10029600C03008080838000007182020221E020077
:1002A60008F808000008F808203F210101213F2036
:1002B600000808F8080800000020203F2020000061
:1002C60000000808F8080800C08080807F00000051
:1002D60008F888C028180800203F2001263820008A
:1002E60008F8080000000000203F202020203000F1
:1002F60008F8F800F8F80800203F003F003F20000B
:1003060008F830C00008F808203F200007183F0012
:10031600E01008080810E0000F10202020100F0041
:1003260008F808080808F000203F21010101000034
:10033600E01008080810E0000F18242438504F0079
:1003460008F8888888887000203F2000030C302039
:1003560000708808080838000038202121221C0077
:10036600180808F8080818000000203F20000000C0
:1003760008F808000008F808001F202020201F00A9
:100386000878880000C83808000007380E01000009
:10039600F80800F80008F800033C0700073C0300D3
:1003A600081868808068180820302C03032C302039
:1003B6000838C800C83808000000203F20000000A8
:1003C60010080808C8380800203826212020180000
:1003D600000000FE020202000000007F40404000D4
:1003E600000C30C000000000000000010638C0000C
:1003F60000020202FE000000004040407F000000B4
:1004060000000402020204000000000000000000D8
:1004160000000000000000008080808080808080D6
:1004260000020204000000000000000000000000BE
:1004360000008080808000000019242222223F20B4
:1004460008F8008080000000003F112020110E00F7
:100456000000008080800000000E11202020110086
:10046600000000808088F800000E112020103F2038
:100476000000808080800000001F222222221300BC
:10048600008080F0888888180020203F2020000007
:100496000000808080808000006B949494936000BC
:1004A60008F8008080800000203F210000203F20C7
:1004B60000809898000000000020203F20200000C7
:1004C600000000809898000000C08080807F0000B7
:1004D60008F8000080808000203F24022D30200094
:1004E600000808F8000000000020203F202000003F
:1004F6008080808080808000203F20003F20003F59
:100506008080008080800000203F210000203F2066
:100516000000808080800000001F202020201F0017
:10052600808000808000000080FFA12020110E0046
:100536000000008080808000000E112020A0FF8037
:10054600808080008080800020203F2120000100E4
:100556000000808080808000003324242424190039
:10056600008080E0808000000000001F2020000046
:100576008080000000808000001F202020103F2087
:10058600808080000080808000010E300806010017
:1005960080800080008080800F300C030C300F00BC
:1005A60000808000808080000020312E0E312000E7
:1005B600808080000080808080818E701806010017
:1005C60000808080808080000021302C2221300035
:1005D60000000000807C020200000000003F404056
:1005E60000000000FF00000000000000FF00000007
:1005F6000002027C800000000040403F0000000036
:1006060000060101020204040000000000000000D0
:100616001060028C00109252321E3252921210005A
:1006260004047E0100211840807F0830040931004F
:10063600101010FF1010F00000F8080808F800006D
:100646008040300F40807F00007F2020207F000008
:100656000000F8888888880808FF08090AC8080082
:1006660080601F0010201F80402116182641F800C8
:10067600080808F80808081010FF101010F000000D
:100686001030101F088848300E014080403F00009F
:100696000040301E101010FF101010101000000047
:1006A60081814121110D0301030D11214181810039
:1006B60000FE02FA02FE4020D8171010F0101000BB
:1006C6008047300F106780402116081621408000B1
:1006D60080FE8282FE80FE8282FE8000F800FF009D
:1006E600403F0020BF403F40807F00004F807F009A
:1006F60000FE225A8620102824E3242810202000F9
:1007060000FF040827110D41817F01050931000012
:100716000000FC242422E302FC444442C34240007D
:1007260040300F02028243300F000000FF0000003D
:1007360004040484E43C2724242424E4040404005C
:1007460004020100FF0909090949897F0000000028
:100756000000FE22222222FE22222222FE00000089
:1007660080601F020202027F020242827F000000B6
:10077600000000F80808090E08080808F80000003C
:100786000080601F01010101010101010300000059
:100796000000F888888888FF88888888F800000024
:1007A60000001F080808087F888888889F80F00056
:1007B600202020BEAAAAAAAAAAAAAABE2020200051
:1007C600008080AFAAAAAAFFAAAAAAAF80800000CA
:1007D6004042CC0000445454547F54545444400086
:1007E60000007F201000FF15151555957F000000AD
:1007F6000808F94A48C84820D8171010F010100009
:1008060040300F20403F80402116081621408000CE
:1008160000002424242424FC222222232200000077
:10082600020202020242827F020202020202020067
:10083600101010FF1090003F484844444442700096
:100846000444827F010000FF4949494949FF0000ED
:091A2100D291D290C290C2912230
:071A3200D291C290D2902274
:051A3900D291C29122D0
:1018DF00C291E4FEAD07ED5480FDB48004D2908038
:1018EF0002C290EF25E0FFD291C2910EEEB408E450
:0118FF0022C6
:10190000AC07121A217F781218DF121A39E4FF127D
:1019100018DF121A39AF041218DF121A39121A32EC
:0119200022A4
:10192100AC07121A217F781218DF121A397F401280
:1019310018DF121A39AF041218DF121A39121A32CB
:011941002283
:1019E800AB07AA06ED4C600412192122AF031219A5
:0219F8000022CB
:1017DC00A907ED24B0FFE433FEE4FDFC1219E8E99F
:1017EC0054F0FFC4540F7E004410FFE4FDFC1219AA
:0E17FC00E8E9540FFF7E00E4FDFC1219E8221C
:10163600E4F9E924B0FFE433FEE4FDFC1219E8E422
:10164600FDFCFFFE1219E8E4FDFC7F10FE1219E80E
:10165600E490001EF07D017C00E4FFFE1219E89084
:10166600001EE004F0E0C3948040EA09E9B404C235
:011676002251
:0B105100900025EDF0900024EFF0FD72
:10105C00E4900026F0F9EB24E0F0EDD3947F400A05
:10106C00E4900024F0A3E02402F0900024E0FFA31D
:10107C00E0FD1217DCE4F9900026E075F010A429CD
:10108C00F582E435F0F583E5822426F582E5833498
:10109C0000F583E493FF7E007D017C001219E809C2
:1010AC00E9B408D3900024E0FFA3E004FD1217DCA0
:1010BC00E4F9900026E075F010A429F582E435F0EF
:1010CC00F583E582242EF582E5833400F583E493E1
:0F10DC00FF7E007D017C001219E809E9B408D3FA
:0110EB0022E2
:1014D10090001EEFF0A3EDF0A3EBF0A3EAF0A3E977
:0114E100F01A
:1014E200E4A3F0900020E0FBA3E0FAA3E0F9A3E07C
:1014F200F582758300120C3BFB602790001EE0FF13
:10150200A3E0FD12105190001EE02408F0E0D394F5
:10151200784007E4F0A3E02402F0900023E004F016
:0215220080C186
:0115240022A4
:0D10EC00900021EBF090001FEFF0A3EDF05D
:1010F900E4900022F01217DCE4F9900021E075F089
:1011090020A42416F582E5F03406F583E58229F555
:1011190082E43583F583E493FF7E007D017C001230
:1011290019E8900022E004F009E9B410CD90001FFD
:10113900E0FFA3E004FD1217DCE4F9900021E0755B
:10114900F020A42426F582E5F03406F583E582290A
:10115900F582E43583F583E493FF7E007D017C000D
:0E1169001219E8900022E004F009E9B410CD5C
:011177002255
:100ECE00E4FDFC7FAEFE1219E8E4FDFC7F40FE124D
:100EDE0019E8E4FDFC7FB0FE1219E8E4FDFC7FC8C2
:100EEE00FE1219E8E4FDFC7F81FE1219E8E4FDFC18
:100EFE007F64FE1219E8E4FDFC7FA1FE1219E8E4FE
:100F0E00FDFC7FA6FE1219E8E4FDFC7FA8FE121977
:100F1E00E8E4FDFC7F1FFE1219E8E4FDFC7FD3FE22
:100F2E001219E8E4FDFCFFFE1219E8E4FDFC7FD582
:100F3E00FE1219E8E4FDFC7FF0FE1219E8E4FDFC58
:100F4E007FD9FE1219E8E4FDFC7F22FE1219E8E4B7
:100F5E00FDFC7FDAFE1219E8E4FDFC7F02FE121999
:100F6E00E8E4FDFC7FDBFE1219E8E4FDFC7F49FEA0
:100F7E001219E8E4FDFC7F8DFE1219E8E4FDFC7FFA
:100F8E0014FE1219E8E4FDFC7FAFFE1219E81216EA
:020F9E003622F9
:1019C300AD071FED600C7E88AD061EED60F280F85A
:0219D30080EEA4
:0119D50022EF
:10189A00759DFFE4F5BD75BC807F021219C375BC46
:1018AA008E00000000E5BC30E4FB53BCEFE4F59D7C
:0318BA00AFBD229D
:0C0006007F017EC07D79DDFEDEFCDFFAAC
:0100120022CB
:0A1A160000007F187EA7DEFEDFFC53
:011A200022A3
:0B1A0A000000007F097E97DEFEDFFC7D
:011A150022AE
:0F19FA000000007F017ECF7D88DDFEDEFCDFFA7E
:011A090022BA
:0812850090001EEEF0A3EFF053
:10128D00C294E4FBFA90001EE0FEA3E0FF7C007D1B
:10129D0014120C68C3EB9FEA9E5011C2931219FAF7
:1012AD00D293121A0A0BBB00010A80D97D647C000F
:1012BD007F021216B690001EE0FEA3E0FF12196227
:1012CD00E4FAFB90001EE0FEA3E0FF7C007D14120B
:1012DD000C68C3EB9FEA9E5011C293120006D29385
:0C12ED00121A160BBB00010A80D9D29423
:0112F90022D2
:0B16B600900020EFF0A3ECF0A3EDF09B
:1016C100E4A3F0900020E0FF900023E0C39F5022AC
:1016D100C2CC900021E0FEA3E0FF121962D2CC90AF
:1016E1000021E0FEA3E0FF121962900023E004F064
:0216F10080D1A6
:0116F30022D4
:0300000002117872
:0C117800787FE4F6D8FD7581200211BFDD
:100B4500E709F608DFFA8046E709F208DFFA803E92
:100B550088828C83E709F0A3DFFA8032E309F6087F
:100B6500DFFA8078E309F208DFFA807088828C83E7
:100B7500E309F0A3DFFA806489828A83E0A3F6089B
:100B8500DFFA805889828A83E0A3F208DFFA804C75
:100B950080D280FA80C680D4806980F2803380104C
:100BA50080A680EA809A80A880DA80E280CA8033B5
:100BB50089828A83ECFAE493A3C8C582C8CCC5832D
:100BC500CCF0A3C8C582C8CCC583CCDFE9DEE780FD
:100BD5000D89828A83E493A3F608DFF9ECFAA9F07C
:100BE500EDFB2289828A83ECFAE0A3C8C582C8CCD2
:100BF500C583CCF0A3C8C582C8CCC583CCDFEADEEB
:100C0500E880DB89828A83E493A3F208DFF980CC4C
:100C150088F0EF60010E4E60C388F0ED2402B40445
:100C25000050B9F582EB2402B4040050AF232345EC
:060C35008223900B957371
:100C3B00BB010CE58229F582E5833AF583E022506E
:100C4B0006E92582F8E622BBFE06E92582F8E222B8
:0D0C5B00E58229F582E5833AF583E49322D2
:100C6800BC000BBE0029EF8DF084FFADF022E4CC70
:100C7800F875F008EF2FFFEE33FEEC33FCEE9DEC39
:100C8800984005FCEE9DFE0FD5F0E9E4CEFD22ED7F
:100C9800F8F5F0EE8420D21CFEADF075F008EF2FC9
:100CA800FFED33FD4007985006D5F0F222C398FDBA
:050CB8000FD5F0EA2257
:100CBD00A3F8E0C5F025F0F0E582158270021583EA
:060CCD00E0C838F0E82247
:10157000C2D5E830E70FB2D5E4C39BFBE49AFAE4A6
:1015800099F9E498F8EC30E717B2D51215A6120DC8
:101590005FE4C39BFBE49AFAE499F9E498F88003CA
:1015A000120D5F30D50DE4C39FFFE49EFEE49DFD68
:0415B000E49CFC2299
:100CD300E8600FECC313FCED13FDEE13FEEF13FFFF
:030CE300D8F12223
:0C0CE600ECF0A3EDF0A3EEF0A3EFF02281
:100CF200A8828583F0D083D082120D09120D0912C9
:100D02000D09120D09E473E493A3C583C5F0C583ED
:100D1200C8C582C8F0A3C583C5F0C583C8C582C84B
:010D220022AE
:10118400021204E493A3F8E493A34003F68001F26B
:1011940008DFF48029E493A3F85407240CC8C3336C
:1011A400C4540F4420C8834004F456800146F6DF3B
:1011B400E4800B0102040810204080901942E47E70
:1011C400019360BCA3FF543F30E509541FFEE49330
:1011D400A360010ECF54C025E060A840B8E493A3F7
:1011E400FAE493A3F8E493A3C8C582C8CAC583CA22
:1011F400F0A3C8C582C8CAC583CADFE9DEE780BEDA
:011961000085
:100D230075F008758200EF2FFFEE33FECD33CDCC87
:100D330033CCC58233C5829BED9AEC99E58298400A
:100D43000CF582EE9BFEED9AFDEC99FC0FD5F0D6E7
:100D5300E4CEFBE4CDFAE4CCF9A88222B800C1B911
:100D63000059BA002DEC8BF084CFCECDFCE5F0CB4F
:100D7300F97818EF2FFFEE33FEED33FDEC33FCEB88
:100D830033FB10D703994004EB99FB0FD8E5E4F943
:100D9300FA227818EF2FFFEE33FEED33FDEC33FC30
:100DA300C933C910D7059BE99A4007EC9BFCE99A24
:100DB300F90FD8E0E4C9FAE4CCFB2275F010EF2F69
:100DC300FFEE33FEED33FDCC33CCC833C810D70769
:100DD3009BEC9AE899400AED9BFDEC9AFCE899F8A4
:0E0DE3000FD5F0DAE4CDFBE4CCFAE4C8F92237
:00000001FF
